:020000020000FC
:080000008AC111C060C118950E
:10000A001895189518957BC11895189518951895EF
:10001A00189518951895189518951895FF93EF93B4
:10002A000F932F933F934F939F9355FD3BC188277F
:10003A0011E01CD321E4122F1DD32DEB122F1AD35A
:10004A0021E6122F17D32BEB122F14D328EB122FE2
:10005A0011D327EB122F0ED320E2122F0BD323EE4C
:10006A00122F08D321E6122F05D32DEB122F02D31C
:10007A002DEB122FFFD223EC122FFCD228E7122FDE
:10008A00F9D210ECF3D23FD32FEF122FF3D23BD396
:10009A002FEF122FEFD237D32FEF122FEBD2A895D3
:1000AA00FF27EFEF9FEF88D32F3F09F042C0FF27CA
:1000BA00EE2782D3922F2D3008F03BC011E0D6D222
:1000CA0028E4122FD7D225E6122FD4D223EE122FEC
:1000DA00D1D22FE6122FCED223E6122FCBD22FEB7C
:1000EA00122FC8D221E6122FC5D22FEB122FC2D25D
:1000FA002FE6122FBFD220EC122FBCD22DEB122FDB
:10010A00B9D22FE6122FB6D210ECB0D223EE122FAC
:10011A00B1D221E6122FAED22DEB122FABD22DEB9C
:10012A00122FA8D223EC122FA5D228E7122FA2D27F
:10013A00B9C0E9D22FEF122F9DD2E5D22FEF122F9D
:10014A0099D2E1D22FEF122F95D2A895332743E007
:10015A00FF27E2E031D3E40FE91724F42239D0F380
:10016A003395F8CF333010F034E1830FCCD22FEF30
:10017A00122F80D2C8D22FEF122F7CD2C4D22FEFE7
:10018A00122F78D2A8959F3FC0F043E0E1E014D344
:10019A00022F322F11D3E40FE91744F4201710F07D
:1001AA00231714F4022FF6CF322FF4CF300B3A3044
:1001BA0024F4343010F039E1830FA5D22FEF122F37
:1001CA0059D2A1D22FEF122F55D29DD22FEF122F33
:1001DA0051D2A89598D22FEF122F4CD294D22FEF4A
:1001EA00122F48D2332743E0FF27E3E008ECE4D29A
:1001FA00E40FE91724F42017D4F73395F8CF3630F3
:10020A0010F03FE0830F7FD22FEF122F33D2A89541
:10021A00332743E0E3E0D0D2022FCED2E40FE9172E
:10022A0034F4201708F0F9CF022F3395F6CF343083
:10023A0010F033E2830F67D22FEF122F1BD263D253
:10024A002FEF122F17D2A89511E010D228E4122FFF
:10025A0011D225E6122F0ED22DEB122F0BD221E648
:10026A00122F08D223E6122F05D22FEB122F02D219
:10027A0024EC122FFFD125E6122FFCD12AE3122FEC
:10028A00F9D120E2122FF6D1282FA0D125E2122F80
:10029A00F1D139D238D237D236D235D234D233D25A
:1002AA0032D2A89528EE2DBD28E42CBD9F914F91FE
:1002BA003F912F910F91EF91FF9118952F9355FD33
:1002CA0005C0506220E82BBF969A17C05F7D20ECCC
:1002DA002BBF9698A895AFD10CD213E3C7D112E3DE
:1002EA00C5D118E2C3D111E0C1D116E0BFD11CE0DB
:1002FA00BDD112E0BBD111E0B9D12F911895689404
:10030A0063956E3B11F45068662718950FE50DBF8B
:10031A0004E00EBFE0E6F0E000270193F430E9F7CD
:10032A00E036D9F7EE27FF27EEE1FF27EA95F083BB
:10033A00E9F700E007BB00E008BB00E004BB00E00F
:10034A0005BB00E401BB06E002BBF9D11ED273D1A2
:10035A00D0D113E38BD112E389D118E287D111E00E
:10036A0085D116E083D11CE081D112E07FD111E062
:10037A007DD123E4122F7ED12FEB122F7BD121E6E0
:10038A00122F78D120E7122F75D12FEB122F72D1AD
:10039A002EE2122F6FD1122F6DD1122F6BD1B7D03F
:1003AA0028EE2DBD28E42CBD25E02EBD24E029BF72
:1003BA002AE025BF20EC2BBFEDD169EBFDD1E22F5E
:1003CA00EF3F11F4EE27E3957894A895F6F7E894B1
:1003DA0055FD14C011E04AD124E5122F4BD125E670
:1003EA00122F48D12CEB122F45D12EEB122F42D1CE
:1003FA002AE3122F3FD120E2122F3CD18DD0A895AB
:10040A0000916000202F06D155FD18C097D02CE22C
:10041A00122F30D100916100BCD027E2122F2AD1CD
:10042A0023E4122F27D110EC21D122E4122F22D15A
:10043A002BEB122F1FD12AE3122F1CD13898369A90
:10044A0016B11071E9F325B1E5D055FD26C02D325C
:10045A0080F02B3C10F024E60DC02D523327FF9379
:10046A00EF93E0EDF7E0E20FF31F2491EF91FF9194
:10047A0001C02227ABD025E2122FFCD020E2122F96
:10048A00F9D020E2122FF6D020EE122FF3D023EB70
:10049A00122FF0D02AE3122FEDD0389A369A16B1DD
:1004AA001071E9F325B1B6D055FD1BC02A5A243183
:1004BA0024F446E3142FDED003C047E3142FDAD026
:1004CA0030E0FF93EF93E0E7F8E0E20FF31F2491A7
:1004DA00EF91FF917BD02CEB122FCCD02CEB122F6B
:1004EA00C9D028EE2DBD28E42CBD5F776ECF2ED162
:1004FA0010E932D11CEA30D110E02ED140D1089552
:10050A0025D110E929D11EEE27D139D10895EFDF7F
:10051A00FAD0F6DF06D1089519D110E91DD11AEAE9
:10052A001BD114D111E918D11ED113B11093600057
:10053A0020D113B11093610022D108952F933F93D4
:10054A002227332707FF06C000950F932DE2122FAB
:10055A0091D00F9104360CF403C004563395FACFA8
:10056A00303029F00F93232F122F84D00F910A30A5
:10057A000CF403C00A502395FACF0F93205D122F73
:10058A0079D00F91005D202F122F74D03F912F91B7
:10059A0008952F9320E004FD2A5F05FD235F06FDE1
:1005AA00275E07FD2E5C022F20E00A300CF403C000
:1005BA000A502395FACF0F93205D122F5BD00F912B
:1005CA00005D202F122F56D02F9108952F933F931D
:1005DA004F930F930FB70F9333274427245610F0E6
:1005EA004395FCCF2C59403019F0405D142F42D06E
:1005FA002A5010F03395FCCF305D132F3BD0265F85
:10060A00205D122F37D00F910FBF0F914F913F915D
:10061A002F91089557FF0EC0E03009F4E395FF27A4
:10062A00C3D0E3952F932E2FEF93EE27A895BCD036
:10063A00EF912F910895C098C198C298B89AB99A23
:10064A00BA9A4CD00895F89449D0C098C19AC29ADF
:10065A0050D006B30F93C2984CD0C29A4AD0C298CF
:10066A0048D00F91007899F778940895F894EBDFC1
:10067A00C09803C0F894E7DFC09AC198C29A35D0EF
:10068A001F93107F08B30F700F93012B08BB31D053
:10069A00C2982FD0C29A0F911F911295107F012BE9
:1006AA0008BB27D0C2981AD078940895F894CBDF63
:1006BA00C09803C0F894C7DFC09AC19AC29A19D0E9
:1006CA0016B3C298107F129514D0C29A012F16B38E
:1006DA00C298107F102B12957894089507B30F7063
:1006EA0007BB08B3006F08BB089507B3006F07BBC9
:1006FA00089504E10A95F1F708950F9304E60A951F
:10070A00F1F70F9108950F931F932F9300E41CE9BB
:10071A0020E0015010402040E0F72F911F910F91E7
:10072A0008950F931F932F9300E015E32CE00150D7
:10073A001040204070F72F911F910F9108957F93D9
:10074A0070E071B970EC70B97F91089504EA06BF40
:10075A0016B71078E9F3089513B904E806BF16B777
:10076A001078E9F3089504EC06BF16B71078E9F398
:10077A00089504E806BF16B71078E9F3089504E966
:10078A0006BF16B71071E9F30895106617B915EE8A
:10079A0016B90895F8941F93A89518E111BD1FE0A2
:1007AA0011BD1F9178940895E199FECFFFBBEEBB6E
:1007BA002DBBE29AE19A0895E199FECFFFBBEEBB09
:1007CA00E09A2DB30895000101020303040405060B
:1007DA000607080809090A0B0B0C0D0D0E0F0F105E
:1007EA001011121213141415161617171819191AAC
:1007FA001B1B1C1C1D1E1E1F2020212222232324FA
:10080A0025252627272829292A2A2B2C2C2D2E2E46
:10081A002F2F303131323333343535363637383895
:10082A00393A3A3B3B3C3D3D3E3F3F4041414242E3
:10083A0043444445464647484849494A4B4B4C4D30
:10084A004D4E4E4F5050515252535454555556577F
:10085A00575859595A5B5B5C5C5D5E5E5F606061CC
:10086A006162636364642326292C303336393D4040
:10087A0043474A4D5054575A5D610003060A0D100A
:10088A0014171A1D2124272A2E3134373B3E41459D
:0E089A00484B4E5255585B5F620104080B0E2E
:00000001FF
